S01900004B6F6D707574657220726F7765726F77792E7372656306
S113000071C0000057C100008DC000008BC000000B
S113001089C0000087C0000085C0000083C00000C4
S113002081C000007FC000007DC000007BC00000D4
S113003079C0000077C0000075C0000073C00000E4
S113004071C0000091C100006DC000006BC00000D1
S113005069C0000067C0000065C000005DC1000009
S113006061C000009AC000005DC000005BC00000D9
S113007059C0000057C0000055C0000053C0000024
S113008051C000004FC000004DC000004BC0000034
S1130090C3C0000047C0000045C0000043C00000CA
S11300A041C000003FC000003DC000003BC0000054
S11300B039C0000037C0000035C0000033C0000064
S11300C031C000002FC000002DC000002BC0000074
S11300D029C0000027C0000025C0000023C0000084
S11300E021C0000011241FBECFEFD1E2DEBFCDBF7F
S11300F000E00CBF12E0A0E0B2E0E2E2F2E100E0D6
S11301000BBF02C007900D92AC31B107D9F725E0BF
S1130110ACE1B2E001C01D92A137B207E1F712D2FF
S11301200C940F096DCF0F931F93CF93DF931F92FE
S11301301F92CDB7DEB78C016AE270E026D5BC0110
S11301406F5F7F4F42E050E0CE01019639D540E128
S113015050E060E070E0CE010196DED3F8018081CA
S1130160843271F4218182818A3259F092E0282705
S11301709F5FF801E90FF11D80818A32C1F701C048
S113018020E081E0261380E00F900F90DF91CF9163
S11301901F910F9108952F9808951F920F920FB6F3
S11301A00F9211240BB60F928F939F93EF93FF93AB
S11301B0CF93DF931F92CDB7DEB78091C6008983BA
S11301C0E0914102F09142028981EA5BFD4F808314
S11301D08091410290914202019690934202809351
S11301E0410289818A3051F4E0914102F091420246
S11301F0EB5BFD4F108281E0809343020F90DF910F
S1130200CF91FF91EF919F918F910F900BBE0F9023
S11302100FBE0F901F9018951F920F920FB60F925A
S113022011240BB60F928F939F93EF93FF938091BA
S1130230CE00909132029630B8F4E0913202F0E0B0
S1130240E050FE4F908198130CC0E0913202F0E030
S1130250E55FFA4F9083809132028F5F8093320280
S11302601EC0109232021BC0E0913202F0E0E55F42
S1130270FA4F8083909132029F5F909332028D30C7
S113028071F481E080934402E0913202E150E09302
S11302903202F0E0E55FFA4F108210923202FF91D1
S11302A0EF919F918F910F900BBE0F900FBE0F9007
S11302B01F9018951F920F920FB60F9211248F93CF
S11302C09F93AF93BF9380913C028F5F80933C02D6
S11302D081E080933B0280913D0290913E02A09187
S11302E03F02B09140028093330290933402A09372
S11302F03502B093360210923D0210923E021092E3
S11303003F0210924002BF91AF919F918F910F9045
S11303100FBE0F901F9018951F920F920FB60F9259
S113032011248F939F93AF93BF9386B58A5F86BD45
S113033080913D0290913E02A0913F02B091400213
S11303400196A11DB11D80933D0290933E02A0939E
S11303503F02B0934002BF91AF919F918F910F9054
S11303600FBE0F901F9018951F920F920FB60F9209
S113037011240BB60F922F938F939F93AF93BF9338
S1130380EF93FF93E0E3F2E0808190913C02A82F89
S1130390B0E0A45EBD4F9C938F5F9DEC899F912D2F
S11303A0112492959F70990F990F292F220F220FD4
S11303B0920F891B808380913102843118F48F5FFE
S11303C08093310210923C02FF91EF91BF91AF9163
S11303D09F918F912F910F900BBE0F900FBE0F9096
S11303E01F90189585B5836085BDEEE6F0E08081A9
S11303F08160808316BC88E09DE39093890080939C
S11304008800E1E8F0E080818860808380818560F5
S11304108083EFE6F0E08081826080831092850023
S1130420109284000895E9E6F0E080818260808380
S1130430E89A08955098589A0895CF92DF92EF92CF
S1130440FF920F931F93CF93DF9300D01F921F92BD
S1130450CDB7DEB78B01229A2A9A2FEF31EE44E012
S1130460215030404040E1F700C000002A98EFEFEF
S1130470F0EE20E0E150F0402040E1F700C0000041
S11304802A9A229835ED3A95F1F700001A9947C057
S1130490EFE3F1E03197F1F700C000001A9B42C08E
S11304A0EFE3F1E03197F1F700C00000DE011196AF
S11304B07E01F6E0EF0EF11C0F2EF7E0CF2EF02DAB
S11304C0D12C70E0E1E0F0E018C01A9BFECF40EAC6
S11304D04A95F1F71A9B08C0AF01022E02C0440FDF
S11304E0551F0A94E2F7642B1A99FECF2150310963
S11304F060F76D93AE15BF0521F02C2D3D2D672FB0
S1130500E4CF2B814AE0BC01822F90E068D389813B
S11305104AE0B80190E063D381E090E005C08FEF3A
S11305209FEF02C08FEF9FEF0F900F900F900F90EF
S11305300F90DF91CF911F910F91FF90EF90DF907B
S1130540CF900895CF93DF93CDB7DEB7CA54D1408F
S11305500FB6F894DEBF0FBECDBF84E1ECE1F2E04C
S1130560DF011D928A95E9F770D180E884B962DFD2
S11305705ADF38DF10DEBFEF23ED80E3B1502040B7
S11305808040E1F700C000001092440229E288E1B3
S113059090E00FB6F894A895809360000FBE209366
S11305A0600078940F2EF0E6CF2EFAEEDF2EE12CC9
S11305B0F12CF02DDE01A352BF4FCF5BDE4FB98388
S11305C0A883C154D1408E010B5E1F4F5E01BBE076
S11305D0AB0EB11CCE010196CD5BDE4F99838883AF
S11305E0C354D140CF5BDE4F6880C154D140CE5B51
S11305F0DE4F7880C254D1402A2CC65BDE4FB882CD
S1130600CA54D140CD5BDE4F9881C354D140C95BFD
S1130610DE4F9883C754D140CC5BDE4FA881C454CD
S1130620D140C85BDE4FA883C854D140CB5BDE4FBA
S1130630B982A882C554D140B12E472CC75BDE4F86
S11306402882C954D140202E0F2EF6E05F2EF02DC3
S11306500F2EF4E63F2EF02D0F2EFAE08F2EF2E04F
S11306609F2EF02DC65BDE4F7880CA54D140A895EA
S113067080913B028130C9F48FB7F89456BC109234
S11306803B028FBF209133023091340240913502F6
S113069050913602C701B6011DD120933702309321
S11306A038024093390250933A02809144028823DD
S11306B091F0AFB6F8946BE075E0862D942D79D265
S11306C0AFBEEBE0F5E0DF01232D1D922A95E9F79B
S11306D010924402A89580914302882341F2A89580
S11306E066E472E0CE0187589F4F63D210924302B2
S11306F0109242021092410267E072E0CE018758E4
S11307009F4F4ED2892BC9F48091370290913802C1
S1130710A0913902B0913A02BF93AF939F938F9304
S11307209F928F921F930F937DD2822D9B2DBBD0CE
S11307300FB6F894DEBF0FBECDBF6DE072E0CE0100
S113074087589F4F2DD2892B79F4C352DF4F88816C
S1130750CD5DD040843241F4862D942DE4DC882391
S113076019F0862D942D9FD060E172E0CE01875858
S11307709F4F16D2892BC1F5C95BDE4F6881C754E0
S1130780D140C85BDE4F7881C854D140C75BDE4F8F
S11307908881C954D140972D50DECC5BDE4F9881BF
S11307A0C454D1409F93CD5BDE4FA881C354D14044
S11307B0AF93CA5BDE4FB881C654D140BF93CB5BC5
S11307C0DE4F2881C554D1402F9383E192E09F935B
S11307D08F931F930F9326D2822D9B2D64D00FB637
S11307E0F894DEBF0FBECDBF69E172E0CE01875839
S11307F09F4FD6D1892B09F03ACF809131028823BB
S113080069F0ECE1F2E0815090E0835E9D4F20E0DE
S11308103191230FE817F907D9F701C020E0822F9F
S1130820880F280F1F922F938AE092E09F938F9353
S11308301F930F93F7D1822D9B2D35D00F900F90DE
S11308400F900F900F900F90FFCE1092C50027E6E7
S11308502093C400E1ECF0E098E1908386E080937B
S1130860C200A0ECB0E03C913D7F3C933081306805
S113087030831092CD002093CC00E9ECF0E090831B
S11308808093CA00A8ECB0E08C918D7F8C9380811A
S1130890806880830895E0ECF0E0908195FFFDCFBF
S11308A08093C60008950F931F93CF93DF93EC01B9
S11308B08881882351F08E010F5F1F4F8881EBDF01
S11308C08981882311F0E801F6CFDF91CF911F9140
S11308D00F910895A1E21A2EAA1BBB1BFD010DC0A6
S11308E0AA1FBB1FEE1FFF1FA217B307E407F507DC
S11308F020F0A21BB30BE40BF50B661F771F881FB8
S1130900991F1A9469F760957095809590959B014D
S1130910AC01BD01CF0108952F923F925F926F9277
S11309207F928F929F92AF92BF92CF92DF92EF927B
S1130930FF920F931F93CF93DF938B01EA0161150D
S1130940710521F0DB018C9311969C93209739F06B
S11309509E01225031092332310508F0F8C07C0190
S11309606701BFEFCB1ADB0A5601F7016080862DC1
S113097090E003D1892B11F07601F2CFFDE26F12E2
S11309800AC0570182E0A80EB11CD70111966C90E1
S1130990772473940BC0BBE26B1207C05701E2E0EB
S11309A0AE0EB11CD70111966C90712CCE018F7EC6
S11309B0892B89F4B0E36B1222C0F50180818F7D0D
S11309C0883541F56180F2E0AF0EB11C872D82605D
S11309D0782EC0E1D0E0C830D105F1F04CF4C2303B
S11309E0D10511F5C12CD12CE12CB0E4FB2E2EC085
S11309F0CA30D10531F0C031D10519F115C02097A5
S1130A0051F7CAE0D0E0ACECCA2EDC2CEC2CACE004
S1130A10FA2E1CC02097F9F6C8E0D0E0C12CD12CE6
S1130A20E12CF0E1FF2E12C060E070E080E090E87D
S1130A309E01442737FD4095542F4CDF69017A010C
S1130A4005C0C12CD12CE12CE8E0FE2EF50160E0BC
S1130A5020E030E0A9014E01AA2497FCA094BA2C0E
S1130A601F0170ED572E560CA9E0A51570F48FEBFD
S1130A70860D8A3118F499EC592E06C08FE9860D3B
S1130A808A3128F589EA582E560C852D90E08C176A
S1130A909D07ECF467FD17C0C216D306E406F506FD
S1130AA078F0C501B40193D39B01AC01250D311D30
S1130AB0411D511D213031054105B0E85B0710F09F
S1130AC06FEF01C061E03196D1016C90C9CF872DE1
S1130AD081700115110571F0662329F03197D80151
S1130AE0ED93FC9307C071FE19C03297D801ED93C2
S1130AF0FC9314C067FF12C0882329F020E030E083
S1130B0040E050E804C02FEF3FEF4FEF5FE782E291
S1130B1090E09093700580936F0516C0882341F090
S1130B2050954095309521953F4F4F4F5F4F0CC0E6
S1130B3057FF0AC082E290E09093700580936F059E
S1130B402FEF3FEF4FEF5FE7B901CA0104C060E048
S1130B5070E080E090E0DF91CF911F910F91FF90C2
S1130B60EF90DF90CF90BF90AF909F908F907F9049
S1130B706F905F903F902F90089591116FC28032D3
S1130B8019F089508550D0F70895FC01819186179A
S1130B9021F08823D9F7992708953197CF01089533
S1130BA0FB01DC018D91019080190110D9F3990B9F
S1130BB00895FB01DC0101900D920020E1F70895F6
S1130BC0FB01DC014150504048F001900D9200209F
S1130BD0C9F701C01D9241505040E0F70895BB276A
S1130BE04A3031F4992322F4BDE2909581959F4FC8
S1130BF001C0BB27FB015527AA27880F991FAA1FED
S1130C00A41710F0A41B83955051B9F7A05DAA3323
S1130C1008F0A95DA193009779F7B111B1931192EE
S1130C20CB0135C20F931F93CF93DF93CDB7DEB7BC
S1130C302E970FB6F894DEBF0FBECDBF0E891F8965
S1130C4086E08C831A8309838FEF9FE79E838D83CD
S1130C50AE01465E5F4F688D798DCE01019610D04E
S1130C60EF81F885E00FF11F10822E960FB6F894ED
S1130C70DEBF0FBECDBFDF91CF911F910F910895BD
S1130C802F923F924F925F926F927F928F929F9298
S1130C90AF92BF92CF92DF92EF92FF920F931F9386
S1130CA0CF93DF93CDB7DEB72C970FB6F894DEBFA2
S1130CB00FBECDBF7C016B018A01FC011782168235
S1130CC0838181FFB0C1CE0101964C01F70193816C
S1130CD0F60193FD859193FF81916F01882309F4B7
S1130CE09EC1853239F493FD859193FF81916F0103
S1130CF0853221F4B70190E0DAD1E8CF512C312CC0
S1130D0020E02032A0F48B3269F030F4803259F0C4
S1130D10833269F420612CC08D3239F0803339F488
S1130D20216026C02260246023C0286021C027FDE2
S1130D3027C030ED380F3A3078F426FF06C0FAE0C9
S1130D405F9E300D1124532E13C08AE0389E300D5F
S1130D501124332E20620CC08E3221F426FD5FC193
S1130D60206406C08C3611F4206802C0883641F431
S1130D70F60193FD859193FF81916F018111C1CF9C
S1130D80982F9F7D9554933028F40C5F1F4FFFE3F9
S1130D90F9830DC0833631F0833771F0833509F060
S1130DA057C021C0F801808189830E5F1F4F4424FE
S1130DB04394512C540114C03801F2E06F0E711C9D
S1130DC0F801A080B18026FF03C0652D70E002C049
S1130DD06FEF7FEFC5012C874FD12C0183012C8548
S1130DE02F77222E16C03801F2E06F0E711CF80125
S1130DF0A080B18026FF03C0652D70E002C06FEFB4
S1130E007FEFC5012C872DD12C012C852068222E43
S1130E10830123FC19C0832D90E048165906A0F4E1
S1130E20B70180E290E043D13A94F5CFF50127FC75
S1130E30859127FE81915F01B70190E038D131108F
S1130E403A94F1E04F1A51084114510479F7DEC085
S1130E50843611F0893631F5F80127FF07C0608127
S1130E607181828193810C5F1F4F08C06081718101
S1130E70882777FD8095982F0E5F1F4F2F76B22E0F
S1130E8097FF09C090958095709561957F4F8F4F1E
S1130E909F4F2068B22E2AE030E0A4013AD1A82E58
S1130EA0A81843C0853729F42F7EB22E2AE030E0FB
S1130EB025C0F22FF97FBF2E8F36C1F018F4883584
S1130EC079F0ADC0803719F0883721F0A8C02F2FF2
S1130ED02061B22EB4FE0DC08B2D8460B82E09C0E3
S1130EE024FF0AC09F2F9660B92E06C028E030E088
S1130EF005C020E130E002C020E132E0F801B7FE95
S1130F0007C060817181828193810C5F1F4F06C08D
S1130F106081718180E090E00E5F1F4FA401F9D0E1
S1130F20A82EA818FB2DFF77BF2EB6FE0BC02B2DC5
S1130F302E7FA51450F4B4FE0AC0B2FC08C02B2DB9
S1130F402E7E05C07A2C2B2D03C07A2C01C0752C63
S1130F5024FF0DC0FE01EA0DF11D8081803311F4E0
S1130F60297E09C022FF06C07394739404C0822FA3
S1130F70867809F0739423FD12C020FF06C05A2C12
S1130F80731418F4530C5718732C731460F4B701CA
S1130F9080E290E02C878BD073942C85F6CF731469
S1130FA010F4371801C0312C24FF11C0B70180E3BD
S1130FB090E02C877CD02C8522FF16C021FF03C033
S1130FC088E590E002C088E790E0B7010CC0822F6A
S1130FD0867851F021FD02C080E201C08BE227FD3A
S1130FE08DE2B70190E063D0A51430F4B70180E33B
S1130FF090E05DD05A94F8CFAA94F401EA0DF11D63
S11310008081B70190E053D0A110F6CF332009F4CA
S11310105DCEB70180E290E04AD03A94F7CFF70171
S11310208681978102C08FEF9FEF2C960FB6F894BC
S1131030DEBF0FBECDBFDF91CF911F910F91FF9007
S1131040EF90DF90CF90BF90AF909F908F907F9064
S11310506F905F904F903F902F9008959927882725
S11310600895FC010590615070400110D8F78095F7
S113107090958E0F9F1F0895FC0161507040019060
S11310800110D8F7809590958E0F9F1F0895DC016D
S1131090FC01672F71917723E1F7329704C07C91AB
S11310A06D9370836291AE17BF07C8F308950F93D1
S11310B01F93CF93DF93182F092FEB018B8181FDB1
S11310C003C08FEF9FEF20C082FF10C04E815F816D
S11310D02C813D81421753077CF4E881F9819F01FB
S11310E02F5F3F4F39832883108306C0E885F98535
S11310F0812F1995892B29F72E813F812F5F3F4F2F
S11311003F832E83812F902FDF91CF911F910F91D9
S11311100895FA01AA27283051F1203181F1E89489
S11311206F936E7F6E5F7F4F8F4F9F4FAF4FB1E0D6
S11311303ED0B4E03CD0670F781F891F9A1FA11DD1
S1131140680F791F8A1F911DA11D6A0F711D811DD2
S1131150911DA11D20D009F468943F912AE0269F97
S113116011243019305D3193DEF6CF010895462FF6
S11311704770405D4193B3E00FD0C9F7F6CF462FD7
S11311804F70405D4A3318F0495D31FD4052419340
S113119002D0A9F7EACFB4E0A695979587957795FD
S11311A06795BA95C9F700976105710508959B0184
S11311B0AC010A2E06945795479537952795BA950D
S11311C0C9F7620F731F841F951FA01D0895DB01CB
S11311D08F939F930BD0BF91AF91A29F800D911DD0
S11311E0A39F900DB29F900D1124089509D0A59F3F
S11311F0900DB49F900DA49F800D911D112408950E
S1131200A29FB001B39FC001A39F700D811D112443
S1131210911DB29F700D811D1124911D0895F894A4
S1051220FFCFFA
S1131222244750474741006B31002564006B32006C
S10F12326B330025733A2573006B340005
S9030000FC
